{
  "contractName": "People",
  "abi": [
    {
      "anonymous": false,
      "inputs": [
        {
          "indexed": false,
          "internalType": "string",
          "name": "name",
          "type": "string"
        },
        {
          "indexed": false,
          "internalType": "bool",
          "name": "senior",
          "type": "bool"
        }
      ],
      "name": "personCreated",
      "type": "event"
    },
    {
      "anonymous": false,
      "inputs": [
        {
          "indexed": false,
          "internalType": "string",
          "name": "name",
          "type": "string"
        },
        {
          "indexed": false,
          "internalType": "bool",
          "name": "senior",
          "type": "bool"
        },
        {
          "indexed": false,
          "internalType": "address",
          "name": "deletedBy",
          "type": "address"
        }
      ],
      "name": "personDeleted",
      "type": "event"
    },
    {
      "constant": true,
      "inputs": [],
      "name": "balance",
      "outputs": [
        {
          "internalType": "uint256",
          "name": "",
          "type": "uint256"
        }
      ],
      "payable": false,
      "stateMutability": "view",
      "type": "function"
    },
    {
      "constant": true,
      "inputs": [],
      "name": "owner",
      "outputs": [
        {
          "internalType": "address",
          "name": "",
          "type": "address"
        }
      ],
      "payable": false,
      "stateMutability": "view",
      "type": "function"
    },
    {
      "constant": false,
      "inputs": [
        {
          "internalType": "string",
          "name": "name",
          "type": "string"
        },
        {
          "internalType": "uint256",
          "name": "age",
          "type": "uint256"
        },
        {
          "internalType": "uint256",
          "name": "height",
          "type": "uint256"
        }
      ],
      "name": "createPerson",
      "outputs": [],
      "payable": true,
      "stateMutability": "payable",
      "type": "function"
    },
    {
      "constant": true,
      "inputs": [],
      "name": "getPerson",
      "outputs": [
        {
          "internalType": "string",
          "name": "name",
          "type": "string"
        },
        {
          "internalType": "uint256",
          "name": "age",
          "type": "uint256"
        },
        {
          "internalType": "uint256",
          "name": "height",
          "type": "uint256"
        },
        {
          "internalType": "bool",
          "name": "senior",
          "type": "bool"
        }
      ],
      "payable": false,
      "stateMutability": "view",
      "type": "function"
    },
    {
      "constant": false,
      "inputs": [
        {
          "internalType": "address",
          "name": "creator",
          "type": "address"
        }
      ],
      "name": "deletePerson",
      "outputs": [],
      "payable": false,
      "stateMutability": "nonpayable",
      "type": "function"
    },
    {
      "constant": true,
      "inputs": [
        {
          "internalType": "uint256",
          "name": "index",
          "type": "uint256"
        }
      ],
      "name": "getCreator",
      "outputs": [
        {
          "internalType": "address",
          "name": "",
          "type": "address"
        }
      ],
      "payable": false,
      "stateMutability": "view",
      "type": "function"
    },
    {
      "constant": false,
      "inputs": [],
      "name": "withdrawAll",
      "outputs": [
        {
          "internalType": "uint256",
          "name": "",
          "type": "uint256"
        }
      ],
      "payable": false,
      "stateMutability": "nonpayable",
      "type": "function"
    }
  ],
  "bytecode": "0x6080604052336000806101000a81548173ffffffffffffffffffffffffffffffffffffffff021916908373ffffffffffffffffffffffffffffffffffffffff1602179055506111f3806100536000396000f3fe6080604052600436106100705760003560e01c80638ec4dc951161004e5780638ec4dc9514610148578063b69ef8a8146101f1578063d48e638a1461021c578063fce82d711461029757610070565b8063102cda4a14610075578063853828b6146100c65780638da5cb5b146100f1575b600080fd5b34801561008157600080fd5b506100c46004803603602081101561009857600080fd5b81019080803573ffffffffffffffffffffffffffffffffffffffff169060200190929190505050610366565b005b3480156100d257600080fd5b506100db61070a565b6040518082815260200191505060405180910390f35b3480156100fd57600080fd5b5061010661080e565b604051808273ffffffffffffffffffffffffffffffffffffffff1673ffffffffffffffffffffffffffffffffffffffff16815260200191505060405180910390f35b34801561015457600080fd5b5061015d610833565b604051808060200185815260200184815260200183151515158152602001828103825286818151815260200191508051906020019080838360005b838110156101b3578082015181840152602081019050610198565b50505050905090810190601f1680156101e05780820380516001836020036101000a031916815260200191505b509550505050505060405180910390f35b3480156101fd57600080fd5b50610206610a01565b6040518082815260200191505060405180910390f35b34801561022857600080fd5b506102556004803603602081101561023f57600080fd5b8101908080359060200190929190505050610a07565b604051808273ffffffffffffffffffffffffffffffffffffffff1673ffffffffffffffffffffffffffffffffffffffff16815260200191505060405180910390f35b610364600480360360608110156102ad57600080fd5b81019080803590602001906401000000008111156102ca57600080fd5b8201836020820111156102dc57600080fd5b803590602001918460018302840111640100000000831117156102fe57600080fd5b91908080601f016020809104026020016040519081016040528093929190818152602001838380828437600081840152601f19601f8201169050808301925050505050505091929192908035906020019092919080359060200190929190505050610aed565b005b6000809054906101000a900473ffffffffffffffffffffffffffffffffffffffff1673ffffffffffffffffffffffffffffffffffffffff163373ffffffffffffffffffffffffffffffffffffffff161461040b576040517f08c379a000000000000000000000000000000000000000000000000000000000815260040180806020018281038252602281526020018061119d6022913960400191505060405180910390fd5b6060600260008373ffffffffffffffffffffffffffffffffffffffff1673ffffffffffffffffffffffffffffffffffffffff1681526020019081526020016000206001018054600181600116156101000203166002900480601f0160208091040260200160405190810160405280929190818152602001828054600181600116156101000203166002900480156104e35780601f106104b8576101008083540402835291602001916104e3565b820191906000526020600020905b8154815290600101906020018083116104c657829003601f168201915b505050505090506000600260008473ffffffffffffffffffffffffffffffffffffffff1673ffffffffffffffffffffffffffffffffffffffff16815260200190815260200160002060040160009054906101000a900460ff169050600260008473ffffffffffffffffffffffffffffffffffffffff1673ffffffffffffffffffffffffffffffffffffffff168152602001908152602001600020600080820160009055600182016000610596919061107e565b600282016000905560038201600090556004820160006101000a81549060ff021916905550506000600260008573ffffffffffffffffffffffffffffffffffffffff1673ffffffffffffffffffffffffffffffffffffffff168152602001908152602001600020600201541461060857fe5b7fce505ea5e5a360ed968bacfdf5b52e168dfe627776422d678cb12143ebe187c882826000809054906101000a900473ffffffffffffffffffffffffffffffffffffffff166040518080602001841515151581526020018373ffffffffffffffffffffffffffffffffffffffff1673ffffffffffffffffffffffffffffffffffffffff168152602001828103825285818151815260200191508051906020019080838360005b838110156106c95780820151818401526020810190506106ae565b50505050905090810190601f1680156106f65780820380516001836020036101000a031916815260200191505b5094505050505060405180910390a1505050565b60008060009054906101000a900473ffffffffffffffffffffffffffffffffffffffff1673ffffffffffffffffffffffffffffffffffffffff163373ffffffffffffffffffffffffffffffffffffffff16146107b1576040517f08c379a000000000000000000000000000000000000000000000000000000000815260040180806020018281038252602281526020018061119d6022913960400191505060405180910390fd5b6000600154905060006001819055503373ffffffffffffffffffffffffffffffffffffffff166108fc829081150290604051600060405180830381858888f19350505050158015610806573d6000803e3d6000fd5b508091505090565b6000809054906101000a900473ffffffffffffffffffffffffffffffffffffffff1681565b6060600080600080339050600260008273ffffffffffffffffffffffffffffffffffffffff1673ffffffffffffffffffffffffffffffffffffffff168152602001908152602001600020600101600260008373ffffffffffffffffffffffffffffffffffffffff1673ffffffffffffffffffffffffffffffffffffffff16815260200190815260200160002060020154600260008473ffffffffffffffffffffffffffffffffffffffff1673ffffffffffffffffffffffffffffffffffffffff16815260200190815260200160002060030154600260008573ffffffffffffffffffffffffffffffffffffffff1673ffffffffffffffffffffffffffffffffffffffff16815260200190815260200160002060040160009054906101000a900460ff16838054600181600116156101000203166002900480601f0160208091040260200160405190810160405280929190818152602001828054600181600116156101000203166002900480156109eb5780601f106109c0576101008083540402835291602001916109eb565b820191906000526020600020905b8154815290600101906020018083116109ce57829003601f168201915b5050505050935094509450945094505090919293565b60015481565b60008060009054906101000a900473ffffffffffffffffffffffffffffffffffffffff1673ffffffffffffffffffffffffffffffffffffffff163373ffffffffffffffffffffffffffffffffffffffff1614610aae576040517f08c379a000000000000000000000000000000000000000000000000000000000815260040180806020018281038252602281526020018061119d6022913960400191505060405180910390fd5b60038281548110610abb57fe5b9060005260206000200160009054906101000a900473ffffffffffffffffffffffffffffffffffffffff169050919050565b670de0b6b3a764000080341015610b0357600080fd5b60968310610b79576040517f08c379a00000000000000000000000000000000000000000000000000000000081526004018080602001828103825260198152602001807f416765206e6565647320746f2062652062656c6f77203135300000000000000081525060200191505060405180910390fd5b670de0b6b3a7640000341015610bf7576040517f08c379a000000000000000000000000000000000000000000000000000000000815260040180806020018281038252600f8152602001807f4d7573742073656e64203120457468000000000000000000000000000000000081525060200191505060405180910390fd5b34600160008282540192505081905550610c0f6110c6565b848160200181905250838160400181815250508281606001818152505060418410610c4a576001816080019015159081151581525050610c5c565b60008160800190151590811515815250505b610c6581610fd7565b60033390806001815401808255809150509060018203906000526020600020016000909192909190916101000a81548173ffffffffffffffffffffffffffffffffffffffff021916908373ffffffffffffffffffffffffffffffffffffffff1602179055505080602001518160400151826060015183608001516040516020018085805190602001908083835b60208310610d155780518252602082019150602081019050602083039250610cf2565b6001836020036101000a038019825116818451168082178552505050505050905001848152602001838152602001821515151560f81b815260010194505050505060405160208183030381529060405280519060200120600260003373ffffffffffffffffffffffffffffffffffffffff1673ffffffffffffffffffffffffffffffffffffffff168152602001908152602001600020600101600260003373ffffffffffffffffffffffffffffffffffffffff1673ffffffffffffffffffffffffffffffffffffffff16815260200190815260200160002060020154600260003373ffffffffffffffffffffffffffffffffffffffff1673ffffffffffffffffffffffffffffffffffffffff16815260200190815260200160002060030154600260003373ffffffffffffffffffffffffffffffffffffffff1673ffffffffffffffffffffffffffffffffffffffff16815260200190815260200160002060040160009054906101000a900460ff166040516020018085805460018160011615610100020316600290048015610ee25780601f10610ec0576101008083540402835291820191610ee2565b820191906000526020600020905b815481529060010190602001808311610ece575b5050848152602001838152602001821515151560f81b81526001019450505050506040516020818303038152906040528051906020012014610f2057fe5b7f483a95908cf8068144f424e2adef59ae102592afd2706bb3d37a620b6a2304e781602001518260800151604051808060200183151515158152602001828103825284818151815260200191508051906020019080838360005b83811015610f95578082015181840152602081019050610f7a565b50505050905090810190601f168015610fc25780820380516001836020036101000a031916815260200191505b50935050505060405180910390a15050505050565b600033905081600260008373ffffffffffffffffffffffffffffffffffffffff1673ffffffffffffffffffffffffffffffffffffffff1681526020019081526020016000206000820151816000015560208201518160010190805190602001906110429291906110f7565b50604082015181600201556060820151816003015560808201518160040160006101000a81548160ff0219169083151502179055509050505050565b50805460018160011615610100020316600290046000825580601f106110a457506110c3565b601f0160209004906000526020600020908101906110c29190611177565b5b50565b6040518060a00160405280600081526020016060815260200160008152602001600081526020016000151581525090565b828054600181600116156101000203166002900490600052602060002090601f016020900481019282601f1061113857805160ff1916838001178555611166565b82800160010185558215611166579182015b8281111561116557825182559160200191906001019061114a565b5b5090506111739190611177565b5090565b61119991905b8082111561119557600081600090555060010161117d565b5090565b9056fe4d757374206265204f776e657220746f20657865637574652066756e6374696f6e2ea265627a7a723158208fbc8c3c1258b6bf859f308df9c146f9204ad717e0f38c973d6f854c8d2f15ff64736f6c634300050c0032",
  "source": "import \"./Ownable.sol\";\r\npragma solidity 0.5.12;\r\n\r\ncontract People is Ownable{\r\n\r\n    struct Person {\r\n      uint id;\r\n      string name;\r\n      uint age;\r\n      uint height;\r\n      bool senior;\r\n    }\r\n\r\n    event personCreated(string name, bool senior);\r\n    event personDeleted(string name, bool senior, address deletedBy);\r\n\r\n    uint public balance;\r\n\r\n    modifier costs(uint cost){\r\n        require(msg.value >= cost);\r\n        _;\r\n    }\r\n\r\n    mapping (address => Person) private people;\r\n    address[] private creators;\r\n\r\n    function createPerson(string memory name, uint age, uint height) public payable costs(1 ether){\r\n      require(age < 150, \"Age needs to be below 150\");\r\n      require(msg.value >= 1 ether, \"Must send 1 Eth\");\r\n      balance += msg.value;\r\n\r\n        //This creates a person\r\n        Person memory newPerson;\r\n        newPerson.name = name;\r\n        newPerson.age = age;\r\n        newPerson.height = height;\r\n\r\n        if(age >= 65){\r\n           newPerson.senior = true;\r\n       }\r\n       else{\r\n           newPerson.senior = false;\r\n       }\r\n\r\n        insertPerson(newPerson);\r\n        creators.push(msg.sender);\r\n\r\n        assert(\r\n            keccak256(\r\n                abi.encodePacked(\r\n                    people[msg.sender].name,\r\n                    people[msg.sender].age,\r\n                    people[msg.sender].height,\r\n                    people[msg.sender].senior\r\n                )\r\n            )\r\n            ==\r\n            keccak256(\r\n                abi.encodePacked(\r\n                    newPerson.name,\r\n                    newPerson.age,\r\n                    newPerson.height,\r\n                    newPerson.senior\r\n                )\r\n            )\r\n        );\r\n        emit personCreated(newPerson.name, newPerson.senior);\r\n    }\r\n    function insertPerson(Person memory newPerson) private {\r\n        address creator = msg.sender;\r\n        people[creator] = newPerson;\r\n    }\r\n    function getPerson() public view returns(string memory name, uint age, uint height, bool senior){\r\n        address creator = msg.sender;\r\n        return (people[creator].name, people[creator].age, people[creator].height, people[creator].senior);\r\n    }\r\n    function deletePerson(address creator) public onlyOwner {\r\n      string memory name = people[creator].name;\r\n      bool senior = people[creator].senior;\r\n\r\n       delete people[creator];\r\n       assert(people[creator].age == 0);\r\n       emit personDeleted(name, senior, owner);\r\n   }\r\n   function getCreator(uint index) public view onlyOwner returns(address){\r\n       return creators[index];\r\n   }\r\n   function withdrawAll() public onlyOwner returns(uint) {\r\n       uint toTransfer = balance;\r\n       balance = 0;\r\n       msg.sender.transfer(toTransfer);\r\n       return toTransfer;\r\n   }\r\n\r\n}",
  "sourcePath": "/mnt/c/Users/marsr/Documents/Solidity/People/contracts/People.sol",
  "compiler": {
    "name": "solc",
    "version": "0.5.12+commit.7709ece9.Emscripten.clang"
  },
  "schemaVersion": "3.0.16",
  "updatedAt": "2020-01-28T01:34:03.788Z",
  "devdoc": {
    "methods": {}
  },
  "userdoc": {
    "methods": {}
  }
}